:040000000128FE2FA6
:100D96000330F2000030F30071087302031DD52EF4
:100DA600700872020318080000000000000000002E
:100DB600000000000130F2070030F33DCF2EFA01AB
:100DC600FB017508F7007408F6000730F736F60CD5
:100DD600890BE92E0630F635F70D890BEE2EF6094E
:100DE600F709F60A0319F70A7608FF3EF8000030FD
:100DF600773DF90079087B02031D032F78087A02F4
:100E060003180800F930F600760820008E050E1546
:100E16007508F1007408F000CB26F930F600760864
:100E260020008E058E147508F1007408F000CB269C
:100E36000130FA070030FB3DE42E7830210099009E
:100E46008B011630970023008C018E01FF302100A4
:100E56008C00C8308E0020008E013F3024008C00AC
:100E66002100951300302000A7000030A6000030B6
:100E7600A5000030A400A71B4D2F2708031D6F2FC8
:100E86002608031D6F2F2508031D6F2F033024022C
:100E960003186F2FBF30F4000030F500E2267030E3
:100EA600F0001730F100CB2601302000A4070030F7
:100EB600A53D0030A63D0030A73DA71B4D2F2708B6
:100EC600031D6F2F2608031D6F2F2508031D6F2F87
:100ED60003302402031C4D2F20000E08FC007C0862
:100EE600A9002130FC007C08A904FE30FC007C0827
:100EF600A90529088E00000020000C08FC007C08CB
:100F0600A8003330FC007C08A805CC30FC007C0827
:100F1600A804A72F5F30F4000030F500E226B62FB4
:100F26006530F4000030F500E226B62FAA30F40052
:100F36000030F500E226B62F9930F4000030F500B7
:100F4600E226B62F0000B62F20002808DF3A031944
:100F56009F2F303A0319992F123A0319932F033A08
:100F660003198D2FA52F20000E08FC007C08A90070
:100F76002130FC007C08A904DF30FC007C08A905B0
:100F860029088E00000020000C08FC007C08A80040
:100F96003330FC007C08A805CC30FC007C08A80493
:100FA600EE2FBF30F4000030F500E2266F2F7130CF
:100FB600F4000030F500E2266F2F8030F400003098
:100FC600F500E2266F2F9030F4000030F500E2269F
:100FD6006F2F00006F2F20002808DF3A0319E62F35
:100FE600303A0319E02F123A0319DA2F033A03199C
:0A0FF600D42FEC2F6F2F2000202FC6
:020000040001F9
:04000E0084F9FFDF93
:00000001FF
